:020000040800F2
:100000009805002001010008E3140008831000088F
:10001000E114000809020008C117000800000000F0
:100020000000000000000000000000001B15000898
:100030000B02000800000000051500081D1500084F
:100040001B0100081B0100081B0100081B01000820
:100050001B0100081B0100081B0100081B01000810
:100060001B0100081B0100081B0100081B01000800
:100070001B0100081B0100081B0100081B010008F0
:100080001B0100081B0100081B0100081B010008E0
:100090001B0100081B0100081B0100081B010008D0
:1000A0001B0100081B0100081B0100081B010008C0
:1000B0001B0100081B0100081B0100081B010008B0
:1000C0001B0100081B0100081B0100081B010008A0
:1000D0001B0100081B0100081B0100081B01000890
:1000E0001B0100081B0100081B010008DFF80CD0F1
:1000F00000F052F800480047B119000898050020A8
:100100000648804706480047FEE7FEE7FEE7FEE7B1
:10011000FEE7FEE7FEE7FEE7FEE7FEE7A5150008BF
:10012000ED00000840EA01039B0703D009E008C97D
:10013000121F08C0042AFAD203E011F8013B00F8AC
:10014000013B521EF9D27047D2B201E000F8012BF8
:10015000491EFBD270470022F6E710B513460A4647
:1001600004461946FFF7F0FF204610BD30B50B4698
:10017000014600202022012409E021FA02F59D42D7
:1001800005D303FA02F5491B04FA02F52844151EAB
:10019000A2F10102F1DC30BD064C074D06E0E0683B
:1001A00040F0010394E8070098471034AC42F6D3BE
:1001B000FFF7A0FFC81A0008E81A000870B5044647
:1001C00000688168C943C9071CD1816821F0010119
:1001D000816000F057FA05460FE000BF00F052FAC8
:1001E000401B022809D9A06A40F01000A062E06A12
:1001F00040F00100E062012070BD20688068C043CB
:10020000C007EBD0002070BDFEE77047F8B50024B2
:10021000009490F824202546012A12D0012280F86B
:1002200024204A681F23072A0DD20668776B521EC6
:1002300002EB820293409F430B6893401F43776316
:1002400019E00220F8BD06680D2A0AD2376BD21FCA
:1002500002EB820293409F430B6893401F43376336
:1002600009E0F76A0D3A02EB820293409F430B6864
:1002700093401F43F7620A68072306680A2A0AD3D5
:10028000F7680A3A02EB420293409F438B6893401F
:100290001F43F76008E0376902EB420293409F4337
:1002A0008B6893401F4337610A68102A01D0112AD6
:1002B00020D1124B02689A4217D193681B0219D4BD
:1002C000936843F4000393600968102912D10C4924
:1002D0000C4A0968B1FBF2F101EB8101490000E031
:1002E000491E00910029FBD104E0816A41F0200100
:1002F0008162012480F824502046F8BD002401408A
:100300002800002040420F002DE9F0414FF0000787
:1003100004003D467ED0A06A002628B9E66284F833
:100320002460204600F07EF82046FFF747FFA16AD0
:10033000C90600D420B1A06A40F01000A06269E0B4
:10034000A16A21F4885141F00201A1626268E16969
:10035000E3680A4347EA43010A43A1684FF4807700
:10036000B94209D0012907D05FF00001D4F814C0C8
:10037000BCF1010F02D00AE03946F7E7F3B1A36AF6
:1003800043F02003A362E36A43F00103E3622368BE
:10039000D3F804C02CF4694C4CEA010CC3F804C037
:1003A00021688B68DFF870C003EA0C0313438B608D
:1003B000A168B9420BD0012909D00CE0DFF85CC07C
:1003C000A3690CEB43330B4343F40061DFE7218A5D
:1003D0000D05A5F580152168CB6A23F470032B4326
:1003E000CB62216889680E4B1940914208D1E662C0
:1003F000A16A21F0020141F00101A162BDE8F08192
:10040000A06A20F0020040F01000A062E06A40F014
:100410000100E0620120F1E7FDF7E1FF00E0FFFFEE
:10042000FE0E1FFF10B5174B02681749032417482B
:1004300086B09A420CD18A6942F400728A61896955
:1004400001F4007104911F21CDE90014694614E004
:100450000F4B9A4213D18A6942F480628A6189699A
:1004600001F480610491E021CDE90014694600F0B7
:1004700025F8009469460748019400F01FF806B07B
:1004800010BD00000024014000100240000801409F
:1004900000280140000C014070B5044600F0F2F85D
:1004A0000546601C02D004480078044400F0EAF8D5
:1004B000401BA042FAD370BD1C0000202DE9F84F6C
:1004C000DFF890A100220AF1040B144601274FF037
:1004D0000F090BF1040E00BF0B6807FA04F52B405F
:1004E000AB4274D1DFF870C14E68A6EB0C086645CC
:1004F0002BD00DDC032E34D005DC36B3012E19D001
:10050000022E2FD11BE0112E16D0122E2AD119E067
:10051000B8F5881F19D006DCB8F5803F15D0B8F5BE
:10052000801F1FD111E0B8F5001F0ED0B8F5041FD1
:1005300018D10AE0CA6815E0CA68121D12E0CA683C
:1005400008320FE0CA680C320CE08A682AB1012A2E
:100550004FF0080203D0456104E0042202E0056187
:1005600000E00022FF2B01D8064601E000F104065E
:100570004FEA840501D9A5F12005D6F800C009FA93
:1005800005F82CEA080C02FA05F54CEA050CC6F849
:1005900000C04D68ED0057D5304DAE6946F00106FC
:1005A000AE61AD6924F0030605F0010500952C4D00
:1005B00006EB050CDCF80850A6074FEA167809FA96
:1005C00008F6B543274EB04202D1002610E03BE0CA
:1005D000254EB04201D101260AE0244EB04201D19D
:1005E000022605E0224EB04201D1032600E0042697
:1005F00006FA08F62E43CCF808604D68DAF8006079
:10060000ED03554601D51E4300E09E432E604D6824
:10061000DBF80060AD035D4601D51E4300E09E435C
:100620002E604D68DEF80060ED02754601D51E4370
:1006300000E09E432E604D68AD020E4D2E6801D540
:100640001E4300E09E432E60641C102CFFF444AF58
:10065000BDE8F88F000401400000111000100240B6
:100660000000014000080140000C01400010014062
:10067000001401400C0401400AB1016170470904F3
:10068000FBE7000001488068704700001C00002064
:100690000248816802781144816070471C00002084
:1006A000074810B5016841F010010160032000F017
:1006B00089F8002000F006F800F024F8002010BDB2
:1006C0000020024070B50D4D04464FF47A71287831
:1006D000B1FBF0F00A490968B1FBF0F000F0FFFB54
:1006E00048B9102C07D200222146501E00F04AF8CB
:1006F00000206C6070BD012070BD00001C00002057
:10070000280000201D4808B5816941F00101816180
:10071000806900F001000090032000F053F80022EF
:1007200011466FF00B0000F02DF8002211466FF01B
:100730000A0000F027F8002211466FF0090000F0CF
:1007400021F800221146501F00F01CF8002211462B
:10075000101F00F017F800221146901E00F012F84A
:1007600000221146501E00F00DF80548416821F0A6
:10077000E06141F08061416008BD0000001002406E
:1007800000000140F0B40E4B1B680C46C3F302237B
:10079000C3F10705042D00D90425191D072901D22D
:1007A000002300E0DB1E012606FA05F1491E214068
:1007B00099409E40761E16403143F0BC00F092BE38
:1007C0000CED00E0064900F0070208684FF6FF0351
:1007D000184040EA0220034A1043086070470000B6
:1007E0000CED00E00000FA052DE9F843054600781D
:1007F000354CC00754D0E0690026C00008D4E06939
:1008000040F08050E061E069012600F080500090E7
:100810002E480168C90512D40168804641F48071F0
:100820000160FFF72FFF074605E000BFFFF72AFF33
:10083000C01B642823D8D8F80000C005F6D5206A6C
:1008400010F4407021D0A98801F4407181421CD07D
:10085000206A1F49012220F440700A6000220A60C9
:100860002062C00711D0FFF70DFF074641F288381C
:1008700008E000BFFFF706FFC11B414502D9032076
:10088000BDE8F883206A8007F4D5206A696820F4FF
:100890004070084320621EB1E06920F08050E061A2
:1008A0002878800705D56068A96820F4404008438F
:1008B00060602878C00605D56068E96820F480008B
:1008C000084360600020DBE7001002400070004039
:1008D000400442422DE9F047DFF83C8105460E46D0
:1008E000D8F8000000F00700B0420CD2D8F8001091
:1008F00021F007013143C8F80010D8F8000000F0DB
:100900000700B04263D12878444C800705D5606861
:10091000A96820F0F000084360602878C00745D03F
:100920006868012816D02168022816D08907002996
:100930004DDA616821F0030101436160FFF7A2FE17
:100940006968074641F2883001290FD002298146A3
:1009500019D027E021688903E9E78901E7E700BFAB
:10096000FFF790FEC11B494501D918E08146606838
:10097000C0F381000128F3D118E000BFFFF782FE29
:10098000C11B49450BD86068C0F381000228F5D12E
:100990000CE000BFFFF776FEC11B494502D90320DA
:1009A000BDE8F087606810F00C0FF3D1D8F80010A4
:1009B000404601F00701B1420BD9016821F007015F
:1009C00031430160006800F00700B04201D001200F
:1009D000E6E72878400705D56068E96820F4E0601C
:1009E000084360602878000706D56068296920F40C
:1009F000605040EAC100606000F03CF86168084A5D
:100A0000C1F30311515CC840064908600020FFF79C
:100A100059FE0020C4E70000002002400010024000
:100A2000AE1A000828000020014800687047000046
:100A3000280000200448054900684968044AC1F3B9
:100A40000221515CC840704728000020001002407D
:100A5000BE1A00080448054900684968044AC1F301
:100A6000C221515CC840704728000020001002409D
:100A7000BE1A000812A185B00FC98DE80F0014A09E
:100A8000144A006804905168134801F00C03042BC9
:100A900010D0082B0ED1C1F38343C9031DF8030006
:100AA0000AD5516804AAC1F34041515C0A4A504337
:100AB000B0FBF1F005B0704708494843FAE7000081
:100AC00002030405060708090A0B0C0D0E0F10108F
:100AD000010200000010024000127A0000093D00EF
:100AE0002DE9F84F04460078B94DC00748D0686832
:100AF000C0F38100012807D06868C0F38100022894
:100B000009D16868C00306D52868800338D56068B5
:100B100000286FD034E06068B0F5803F0BD010B192
:100B2000B0F5A02F11D0286820F480302860286804
:100B300020F4802002E0286840F48030286060685B
:100B400088B1FFF79FFD064609E0286840F4802041
:100B50002860F0E7FFF796FD801B642875D82868A9
:100B60008003F7D50CE0FFF78DFD064605E000BFDA
:100B7000FFF788FD801B6428F0D828688003F7D42D
:100B80002078944E80074FF001094FF000083BD5C4
:100B9000686810F00C0F07D06868C0F38100022865
:100BA00009D16868C00306D42868800714D5206975
:100BB00001281FD110E02069B0B1C6F80090FFF7FE
:100BC00061FD074605E000BFFFF75CFDC01B022882
:100BD000C4D828688007F7D52868616920F0F80034
:100BE00040EAC10028600FE0C6F80080FFF74AFD28
:100BF000074606E0E9E000BFFFF744FDC01B0228FE
:100C000023D828688007F7D4207800072CD57248AD
:100C1000A169D9B1C0F80090FFF734FD074604E0A0
:100C2000FFF730FDC01B02280FD8686A8007F7D590
:100C30006A484FF4FA510068B0FBF1F0009000BF31
:100C40000098411E0091FAD20EE080E0C0F80080CA
:100C5000FFF718FD074604E0FFF714FDC01B02284C
:100C600075D8686A8007F7D42078400760D5E869AE
:100C70000027C00008D4E86940F08050E861E869C6
:100C8000012700F08050009055480168C90513D431
:100C90000168834641F480710160FFF7F3FC8246EE
:100CA00006E000BFFFF7EEFCA0EB0A0064284ED878
:100CB000DBF80000C005F5D5E06801280AD008B1CE
:100CC000052813D0286A20F001002862286A20F045
:100CD000040002E0286A40F001002862E06841F266
:100CE000883B98B1FFF7CEFC82460BE0286A40F0C3
:100CF00004002862EEE700BFFFF7C4FCA0EB0A0186
:100D000059455AD8286A8007F6D50CE0FFF7BAFC97
:100D1000824605E0FFF7B6FCA0EB0A0159454CD826
:100D2000286A8007F6D41FB1E86920F08050E86196
:100D3000E06988B36968C1F38101022945D00228BE
:100D4000C6F8608004D0FFF79DFC044638E034E02C
:100D5000FFF798FC074604E0FFF794FCC01B02284D
:100D60002BD828688001F7D4206AB0F5803F05D1E0
:100D70006868A16820F4003008436860D4E908017D
:100D80000843696821F4741108436860C6F86090EC
:100D9000FFF778FC044606E015E000BFFFF772FCA1
:100DA000001B022809D828688001F7D50BE000BF96
:100DB000FFF768FC001B022802D90320BDE8F88F6A
:100DC00028688001F4D40020F8E70120F6E700004D
:100DD00000100240000042428004424228000020ED
:100DE0000070004070B5040005D00025A56294F89D
:100DF000510010B104E0012070BD204600F034F82D
:100E0000022084F851002068016821F0400101604F
:100E1000D4E901010843D4E903121143084361698D
:100E20000843218B01F400710843E1690843216AFA
:100E30000843A16A084321680860A069042101EA07
:100E40001040616A0843216848602168E06A0861CF
:100E50002068C16921F40061C1616565012084F8E1
:100E60005100002070BD000010B50068124986B026
:100E700088421ED11148C16941F48041C161C069F5
:100E80000F4C00F4804004904FF42040009002206A
:100E900001900320039069462046FFF70FFB0021D5
:100EA0004FF48040CDE90001029169462046FFF7EA
:100EB00005FB06B010BD00000038004000100240E5
:100EC000000C01404FF0E0210428086903D020F015
:100ED00004000861704740F00400FAE7704710B55D
:100EE000401EB0F1807F01D3012010BD4FF0E024FF
:100EF00060610F21601700F0F5FA0020A061072063
:100F00002061002010BD10B5FFF7E8FF10BD70B5DF
:100F1000040004D094F83900002510B106E0012047
:100F200070BD84F83850204600F022F8242084F860
:100F300039002068C16821F40051C160204600F0EA
:100F400055FB2068016921F49041016120684169E5
:100F500021F02A0141612068C16841F40051C1605B
:100F6000E563202084F8390084F83A00002070BD41
:100F700010B50068114986B088421DD110488169BA
:100F800041F48041816180690E4C00F480400490FE
:100F90004FF40070009002200190032003906946F6
:100FA0002046FFF78BFA00212015CDE900010291C0
:100FB00069462046FFF782FA06B010BD00380140AE
:100FC00000100240000801402DE9F843044690F863
:100FD00039001F4616460D46202850D1A5B19EB1B6
:100FE00094F8380001284AD0012084F838004FF0E6
:100FF0000008C4F83C80212084F83900FFF742FB48
:10100000A6848146E68426E00120BDE8F883E08CD2
:10101000401EE084A0684B46B0F5805F4FF00002B0
:101020004FF080012046009703D000F097FBE8B90D
:101030000DE000F093FBC8B928882168C0F30800D0
:101040004860206908B16D1C05E0AD1C03E0216813
:1010500015F8010B4860E08C0028D8D14B460022DF
:1010600040212046009700F079FB08B10320CCE72F
:10107000202084F8390084F838800020C5E7022059
:10108000C3E7FEE70B4810B54FF4805303600A4CEA
:10109000F521204600F037FAFF21204600F033FA10
:1010A0000449C0B2091F0B60702801D0002010BD98
:1010B000012010BD140C0140003800402DE9F04122
:1010C000374886B0816941F008018161816901F08A
:1010D00008010491816941F008018161816901F091
:1010E00008010491816941F008018161816901F081
:1010F00008010491816941F008018161816901F071
:1011000008010491C16941F48041C161C0690125B0
:101110002C0300F480400195032702950094CDE94B
:101120000370DFF8808069464046FFF7C7F9CDE9D4
:10113000025702266700CDE9007669464046FFF770
:10114000BDF9A000009069464046FFF7B7F9E000FE
:10115000009069464046FFF7B1F91248103004602C
:10116000124C1148690220604FF4827060600020C8
:10117000A060C4E90551C4E903063821C4E9071099
:10118000C4E909070720E0622046FFF72BFE20682C
:10119000016841F04001016006B0BDE8F081000047
:1011A00000100240000C01400038004028010020DF
:1011B0002DE9F04387B00446182228496846FEF717
:1011C000B1FF20788DF80A0060788DF80800A078CB
:1011D0008DF80C00E078DFF88880224F8DF80E0043
:1011E00000246D464FF48056A8F1040905EB440035
:1011F00015F814304178C8F80060384600F083F9DB
:101200001946384600F07FF9C9F800600120FFF761
:1012100043F9641CE4B20B2CE8D3FFF733FF012839
:1012200003D0002007B0BDE8F0830A20FFF734F9AF
:101230000D4C002021680A6822F040020A60E0613B
:101240002046FFF7CFFD2068016841F040010160B2
:101250000A20FFF721F90120E4E70000981A0008AE
:10126000140C014000380040280100202DE9F04115
:1012700086B0044618216846FEF76DFF1B484FF400
:1012800080576E460E250760DFF86480BB2140461C
:1012900000F039F90023FF21404600F034F9F05402
:1012A0005B1CDBB2AB42F6D31048001F0760BDF8F1
:1012B000060040BA2080BDF8000040BA6080BDF84A
:1012C000020040BAA080BDF8040040BAE080BDF83A
:1012D000080040BA2081BDF80A0040BA6081BDF81C
:1012E0000C0040BAA08106B0BDE8F081140C0140AA
:1012F000003800400D4810B50B49016000218160A5
:10130000C1604FF460224161C2614160012101610D
:10131000FEF7FAFF002805D0BDE81040432104A0E5
:1013200000F04FBA10BD00000024014088000020EA
:101330002E2E2F5372632F6164632E630000000012
:101340003EB51248002410498460C46044610160C5
:10135000012505614FF460214460C161FEF7D4FFAF
:1013600018B157210AA000F02CFA0920CDE9000598
:10137000694602940548FEF749FF002803D0612121
:1013800003A000F01EFA3EBD00280140B800002076
:101390002E2E2F5372632F6164632E6300000000B2
:1013A0002DE9F041224886B0816941F01001816148
:1013B000816901F010010491816941F0200181618E
:1013C000816901F020010491816941F0040181618A
:1013D000816901F004010491816941F00801816192
:1013E0008069144F00F008004FF40054049000226C
:1013F00021463846FFF740F9DFF83C8066100022AE
:1014000031464046FFF738F9009401240225694629
:10141000384603950194FFF751F8CDE90064694619
:1014200040460395FFF74AF806B0BDE8F08100009A
:101430000010024000100140000C0140104810B59F
:101440000E4901604FF482714160002102228160E7
:10145000C0E903121202C0E90512C16101624162D2
:1014600081620A21C162FFF7BDFC002805D0BDE8FA
:101470001040452103A000F0A4B910BD0038004081
:10148000300000202E2E2F5372632F7370692E634D
:10149000000000000D4810B50B4901604FF4E13128
:1014A0004160002181600C22C160C0E904128161A9
:1014B000C161FFF72CFD002805D0BDE81040422196
:1014C00003A000F07EB910BD00380140E800002004
:1014D0002E2E2F5372632F75736172742E6300006A
:1014E000FEE770470907090E002806DA00F00F0032
:1014F00000F1E02080F8141D704700F1E02080F832
:1015000000147047704782689207FCD5C1608168FB
:10151000C907FCD0C06880B27047704710B5FFF7AC
:10152000B7F8BDE81040FFF7EEBC30B593B001212D
:101530000804CDE900100025029502240491CDE9AC
:1015400007404FF4E01009906846FFF7C9FA00B170
:10155000FEE70AA90F2081E831004FF48060CDE951
:101560000D0502210AA8FFF7B5F900B1FEE74FF417
:10157000004011900F940FA8FFF736F900B1FEE775
:10158000FFF752FA4FF47A71B0FBF1F0FFF7A7FCC6
:101590000420FFF797FC00221146501EFFF7F2F8D7
:1015A00013B030BD0D48016841F001010160416890
:1015B0000B4A1140416001680A4A1140016001680C
:1015C00021F480210160416821F4FE0141604FF463
:1015D0001F0181600449C003086070470010024089
:1015E0000000FFF8FFFFF6FE08ED00E02DE9F041F6
:1015F000044600680169E26821F440511143016129
:101600002169A0680843616908432168CA6841F2FA
:101610000C639A430243CA6020684169A26921F4BD
:101620004071114341614C4920686425322688424B
:101630003CD1FFF70FFA00EBC00101EB001061682D
:101640008900B0FBF1F7FFF705FA00EBC00101EBF1
:1016500000106168B0468900B0FBF1F0B0FBF5F016
:101660006FF01801484307EB800106EB0110B0FB57
:10167000F5F000F0F006FFF7EDF900EBC00101EB2B
:10168000001061688900B0FBF1F0B0FBF5F006EBEB
:101690000016FFF7DFF900EBC00101EB00106168F5
:1016A0008900B0FBF1F7FFF7D5F93BE0FFF7C2F98E
:1016B00000EBC00101EB001061688900B0FBF1F79D
:1016C000FFF7B8F900EBC00101EB00106168B0460C
:1016D0008900B0FBF1F0B0FBF5F06FF01801484362
:1016E00007EB800106EB0110B0FBF5F000F0F0060F
:1016F000FFF7A0F900EBC00101EB00106168890061
:10170000B0FBF1F0B0FBF5F006EB0016FFF792F935
:1017100000EBC00101EB001061688900B0FBF1F73C
:10172000FFF788F900EBC00101EB00106168890048
:10173000B0FBF1F0B0FBF5F06FF01801484307EB98
:10174000800108EB0110B0FBF5F0216800F00F00FC
:1017500030448860BDE8F081003801402DE9F04157
:10176000984617460E460446069D1DE0681C1BD091
:101770002DB1FEF787FFA0EB0800A84214D920681E
:10178000C16821F4D071C1602068416921F0010174
:101790004161202084F8390084F83A00002084F860
:1017A00038000320BDE8F0812068006836EA0000B8
:1017B00004D00020B842D9D00020F3E70120F9E797
:1017C000FEE7FEE70FB4054B10B503A9044A0298E3
:1017D00000F018F810BC5DF814FB0000891900082F
:1017E0002C00002002E008C8121F08C1002AFAD10C
:1017F00070477047002001E001C1121F002AFBD191
:10180000704700002DE9FF4F89B09B460446002534
:1018100006E025280BD05A460B999047641C6D1C96
:1018200020780028F5D10DB02846BDE8F08F0027BC
:10183000B8460122474900E0074314F8013F203B26
:1018400002FA03F00842F7D120782E2819D114F8B3
:10185000010F47F004072A280ED06FF02F022078DE
:10186000A0F1300109290CD808EB880102EB4101F5
:1018700000EB0108641CF2E70A98641C50F8048B22
:101880000A9020780028CED0642808D0692806D095
:1018900075281ED05A460B9990476D1C58E00A993E
:1018A0004FF00A0901C90A91002802DA40422D21AD
:1018B00002E0390504D52B218DF82010012103E029
:1018C000F90704D02021F7E78A4608AE0DE0002191
:1018D000FAE70A994FF00A0901C90A91F7E7494660
:1018E000FEF744FC303106F8011D0028F7D1ADEBBE
:1018F000060000F12009780701D44FF00108C8451F
:1019000002DDA8EB090000E000208046002706E089
:1019100008A85A46C05D0B9990476D1C7F1C57451F
:10192000F6DB04E030205A460B9990476D1CB8F165
:101930000001A8F10108F5DC05E016F8010B5A4694
:101940000B9990476D1CB9F10001A9F10109F4DC74
:10195000641C65E7092801001CB5FFF7AFFB642094
:10196000FEF79AFD18208DF8000003208DF8010085
:1019700008218DF802108DF803006846FFF718FC67
:101980006420FEF789FD1CBD13B54FF6FF730122DD
:1019900069460248FFF718FB00981CBDE8000020CC
:1019A000012251030148FEF767BE0000001001400C
:1019B000FEF776FEFFF7B9FDFFF7F2FCFFF76AFDD1
:1019C000FFF798FCFFF7BCFCFFF738FD08A0FFF716
:1019D000F9FEFFF7C1FF09A0FFF7F4FEFFF7E0FFF4
:1019E00000F03AF800F012F80A20FEF755FDF7E78C
:1019F000494D5520696E69742E2E2E00494D552093
:101A0000696E697420646F6E652E00001FB50A4808
:101A1000B0F90810B0F90040B0F90C30B0F90A2064
:101A20008DE81E00B0F90630B0F90420B0F90210BC
:101A300002A0FFF7C7FE1FBD80010020256409201A
:101A400025640920256409202564092025640920CE
:101A50002564092025640A0010B50D48FFF706FC2F
:101A60000B480C49B0F902200A60B0F904204A6022
:101A7000B0F906208A60B0F90820CA60B0F90A20DF
:101A80000A61B0F90C204A61B0F90000886110BD0C
:101A90008001002000000020806B016B306A006C28
:101AA000071A181B081C481D103710384D24000059
:101AB00000000000000001020304060708090000FE
:101AC0000000010203040000E81A000800000020E2
:101AD00030000000E4170008181B00083000002048
:101AE00068050000F4170008000000000000000076
:101AF00000000000000000000000000000000000E6
:101B000000000000010000001000000000000000C4
:081B100000A24A0400000000DD
:04000005080000ED02
:00000001FF
